:020000040000FA
:02000000522884
:100008007E1480314E018F1E0A280B285028420189
:100018001908FB007B08FD00F0307D02031C152841
:10002800162817285028FD1F1A281B2822287D0863
:10003800FB007B084001B100B0014E2840013003AD
:10004800031D272828283B287D08FB007B08AE00D5
:100058002F08FB007B08F6002E08FC007C08F70040
:10006800310880316F2080314001B00150283108BB
:10007800031D3F28402841285028F030310203183A
:10008800462847284E287D08FB007B08AF00B001B2
:10009800B00A50284E018F127E1009005328DE3016
:1000A8008400823085001200B9001200BA001200E4
:1000B800BB001200BC001200BD001200BE00FD0112
:1000C800203084000030850012308231E4228031F3
:1000D8007E104001E629FA007A08F039F80078081D
:1000E8004001AD007A080F39F8007808AC00B0304C
:1000F8002D06031D802881289A287603031D85284C
:1001080086289A282C083906031D8B288C289A28BB
:100118007708F8007808A7002708F8007808F000A2
:10012800003082314B2280316B296B29E0302D065B
:10013800031D9F28A028E5282C083906031DA5289B
:10014800A628E5283C0877020318AB28AC28C02865
:10015800403077020318B128B228C0287708F80081
:10016800F9017808A2007908A3002208333EA0000C
:100178000330233DA100D7283C087702031CC5287B
:10018800C628B22877083C020318CB28CC28CD28EB
:10019800B22840307706031DD228D328D728333019
:1001A800A0000330A1002108F1002008F000013070
:1001B8008231A72280317708F80078084001BC0016
:1001C8006B2990302D06031DEA28EB2853292C08AB
:1001D8003906031DF028F128532976080319F52854
:1001E800F62853293B087602031CFB28FC285329D0
:1001F8003B087602F8007808AB0076083A02031844
:100208000629072908296B297708031D0C290D29B8
:1002180011298231CD2280316B292B08F800F90190
:10022800F835F90D6C30780784008130793D850008
:10023800003FF000013FF10000308231A7228031F9
:100248007708F8007808F000013082314B228031BD
:1002580040010E183029312938291A08FC39033889
:100268009A00A801A80A4C293D03031D3C293D29F1
:100278004C290E1C402941294C298E14A801A80A92
:100288007708F8007808F000013082314B2280317D
:100298004001A9017608F8007808AA006B29803087
:1002A8002D060319582959295E297708031D5D2948
:1002B8005E2999282C083906031D63296429992881
:1002C8003B087602031C69296A2999280D29080028
:1002D800003400344434003489340034CD340034DC
:1002E80011340134553401349A340134DE34013484
:1002F8002234023466340234AB340234EF3402342C
:100308003334033477340334BC34033400340434D2
:100318004434043489340434CD3404341134053479
:10032800553405349A340534DE3405342234063421
:1003380066340634AB340634EF34063433340734C9
:1003480077340734BC340734003408344434083470
:1003580089340834CD340834113409345534093417
:100368009A340934DE34093422340A3466340A34BF
:10037800AB340A34EF340A3433340B3477340B3467
:10038800BC340B3400340C3444340C3489340C340D
:10039800CD340C3411340D3455340D349A340D34B5
:1003A800DE340D3422340E3466340E34AB340E345D
:1003B800EF340E3433340F3477340F34BC340F3405
:1003C800FF340F34603051018D00023093007E01FC
:1003D800B801CE01373040019200940101307E010E
:1003E800B90005307D01CB000F307E01940002304A
:1003F8007D01C60015307E01A5001630A40090309E
:1004080042019D0024309E009F1500309C001F3043
:100418009B0020304301900010120F174E019916CF
:100428000B178B1740018E150E150030B200B30064
:10043800003082317F22813133304001B2000330F5
:10044800B300013082317F22813140010C182D2AFE
:100458002E2A332A0F30B8003808B900372A0E3050
:10046800B8003808B9002803031D3B2A3C2A292A6A
:100478000130B8003808A907FE302902031C452AB4
:10048800462A292AA901A8018E10292A5228F300F0
:10049800F4017008F1000430F136890B502A710814
:1004A800F2007208F5007303031D5B2A5C2A5D2ABB
:1004B800F5177030F1007108F5047008F100033089
:1004C800F135FF3E031D642A71350F39F2007208B9
:1004D800F40040010E11750843018C000F1C752AA9
:1004E800762A722A74088C000F1C7B2A7C2A782AA8
:1004F80040010E1508004001B500B6013308B400EC
:100508003408B7003503031D8A2A8B2A8C2AB717AB
:100518007030B4003408B7043208B4003408B600A8
:100528008E11370843018C000F1C9B2A9C2A982A9D
:100538004001360843018C000F1CA32AA42AA02AD4
:1005480040018E150800F300F4017108F2007208EA
:10055800F5007303031DB12AB22AB32AF5177030C8
:10056800F2007208F5047008F2007208F400400105
:100578008E11750843018C000F1CC32AC42AC02A97
:1005880074088C000F1CC92ACA2AC62A40018E1575
:10059800080040012A082F06031DD32AD42ADD2A81
:1005A8001A08FC399A00A801F001013082314B2267
:1005B800823108000F345534183440340134FE3485
:1005C800640080010131890BE52A00343334033497
:020000040001F9
:0A000E00EC1FFF3F9F3FFF3FFF3F45
:00000001FF
